:020000040800F2
:1000000000800120550D0008690B00086F0B0008E7
:10001000750B00087B0B0008810B00080000000036
:10002000000000000000000000000000870B000836
:10003000950B000800000000A30B0008B10B00089E
:10004000A50D0008A50D0008A50D0008A50D0008C8
:10005000A50D0008A50D0008A50D0008A50D0008B8
:10006000A50D0008A50D0008A50D0008A50D0008A8
:10007000A50D0008A50D0008A50D0008A50D000898
:10008000A50D0008A50D0008BD0B0008000000002C
:10009000000000000000000000000000A50D0008A6
:1000A000A50D0008A50D0008A50D0008A50D000868
:1000B000A50D0008A50D0008A50D0008A50D000858
:1000C000A50D0008A50D0008A50D0008A50D000848
:1000D000A50D0008A50D0008A50D000800000000F2
:1000E000D10B0008A50D0008A50D000800000000B8
:1000F000000000000000000000000000A50D000846
:1001000000000000A50D0008A50D0008A50D0008C1
:1001100000000000000000000000000000000000DF
:10012000A50D0008A50D0008A50D0008A50D0008E7
:10013000A50D000800000000000000000000000005
:10014000000000000000000000000000A50D0008F5
:10015000A50D0008A50D0008A50D0008A50D0008B7
:10016000A50D0008A50D000800000000000000001B
:10017000000000000000000000000000000000007F
:1001800000000000A50D00080000000000000000B5
:04019000A50D0008B1
:1001A00010B5054C237833B9044B13B10448AFF3B1
:1001B00000800123237010BD6800002000000000B3
:1001C0005041000808B5034B1BB103490348AFF386
:1001D000008008BD000000006C00002050410008B5
:1001E000034613F8012B002AFBD1181A0138704777
:1001F00001F0FF01102A2BDB10F0070F08D010F8D8
:10020000013B013A8B422DD010F0070F42B3F6D1DB
:10021000F0B441EA012141EA014122F007047FF0F4
:1002200000070023F0E80256083C85EA010586EA4B
:10023000010685FA47F5A3FA87F586FA47F6A5FA87
:1002400087F68EB9EED1F0BC01F0FF0102F0070293
:1002500032B110F8013B013A83EA010313B1F8D13E
:100260000020704701387047002D06BF354603381F
:10027000073815F0010F07D1013015F4807F02BF58
:10028000013015F4C03F0130F0BC0138704700BFA9
:1002900053B94AB9002908BF00281CBF4FF0FF31ED
:1002A0004FF0FF3000F070B9ADF1080C6DE904CEED
:1002B00000F006F8DDF804E0DDE9022304B0704741
:1002C0002DE9F047089E0D4604460F46002B4AD103
:1002D0008A42944665D9B2FA82F343B102FA03FC2A
:1002E000C3F120029F4020FA02F217439C404FEADC
:1002F0001C4E1FFA8CF5B7FBFEF1220C0EFB11779A
:1003000042EA074201FB05F090420AD91CEB0202C7
:1003100001F1FF3780F01C81904240F219810239CF
:100320006244121AA4B2B2FBFEF00EFB102244EAA1
:10033000024400FB05F5A5420AD91CEB040400F1B8
:10034000FF3280F00781A54240F204816444023804
:1003500040EA0140641B00211EB1DC400023C6E9D5
:100360000043BDE8F0878B4208D9002E00F0ED80F5
:100370000021C6E900050846BDE8F087B3FA83F11D
:10038000002949D1AB4202D3824200F2F880841A9C
:1003900065EB030201201746002EE2D0C6E90047B4
:1003A000DFE702B9FFDEB2FA82F3002B40F0908063
:1003B0008A1A4FEA1C471FFA8CFE0121B2FBF7F59F
:1003C00007FB1520220C42EA00420EFB05F090428A
:1003D00008D91CEB020205F1FF3802D2904200F26C
:1003E000CB804546121AA4B2B2FBF7F007FB1022ED
:1003F00044EA02440EFB00FEA64508D91CEB0404A7
:1004000000F1FF3202D2A64500F2BB801046A4EBF9
:100410000E0440EA05409FE7C1F120078B4022FA15
:1004200007FC4CEA030C05FA01F420FA07F3FD403F
:100430004FEA1C492343B5FBF9F81FFA8CFE09FB70
:1004400018551C0C44EA054408FB0EF5A54202FAB7
:1004500001F200FA01F00BD91CEB040408F1FF3A99
:1004600080F08880A54240F28580A8F102086444AB
:10047000641B9DB2B4FBF9F309FB134445EA044441
:1004800003FB0EFEA64508D91CEB040403F1FF355F
:100490006CD2A6456AD9023B644443EA0843A3FBF5
:1004A0000295A4EB0E04AC42C846AE4656D353D0D8
:1004B00056B1B0EB080264EB0E0404FA07F7CA4029
:1004C000CC401743C6E9007418460021BDE8F08708
:1004D000C3F1200102FA03FC20FA01F225FA01F12E
:1004E0009D402A434FEA1C471FFA8CFEB1FBF7F0F0
:1004F00007FB1015110C41EA054100FB0EF58D427A
:1005000004FA03F408D91CEB010100F1FF382FD2E3
:100510008D422DD902386144491B92B2B1FBF7F5E7
:1005200007FB151142EA014205FB0EF1914208D981
:100530001CEB020205F1FF3816D2914214D9023D9C
:100540006244521A45EA004138E73146304608E72E
:100550003946E6E61046FBE64845A9D2B9EB020863
:1005600065EB0C0E013BA3E74546EAE72B4694E713
:100570004046D1E7D0467BE7023D624432E7084679
:100580000AE76444023842E7704700BF80B590B084
:1005900000AF00F009FC00F083F800F05DF900F016
:1005A000DFF800F02FF9384800F0D8FC4FF0FF31A9
:1005B000354800F0BAFD344800F052FF0346BB87CF
:1005C000314800F07FFD0023BB63BB8FBB6300237A
:1005D0007B63BB6B1A1F13469B0013441B012B4A02
:1005E00082FB03125212DB17D31A7B63C8237B866C
:1005F0007A8E3B462649184602F06EFD3B46184669
:10060000FFF7EEFD03469AB239464FF0FF3321481B
:1006100002F019F94FF4FA7000F038FC282001F0CC
:100620008EFA012208211C4801F036FC0022042128
:10063000194801F031FC00224FF48051174801F0B5
:100640002BFC4FF4FA7000F021FC7B6B272BAADC0B
:100650000023FB8712E0012204210F4801F01CFC5B
:1006600001224FF480510D4801F016FC00220821B0
:10067000094801F011FCFB8F0133FB87FB8FB3F5B9
:10068000FA6FE8D38FE700BF8400002021030A201F
:1006900068410008CC000020000C02400004024029
:1006A00080B594B000AF07F1200330220021184636
:1006B00002F075FD07F10C0300221A605A609A607F
:1006C000DA601A610023BB60234B1B6C224A43F0A3
:1006D00080531364204B1B6C03F08053BB60BB68DA
:1006E00000237B601D4B1B6823F440431B4A43F4EB
:1006F00000431360194B1B6803F440437B607B6825
:1007000002233B620123FB6210233B630023BB6394
:1007100007F12003184601F0F1FB0346002B01D03E
:1007200000F060F90F23FB6000233B6100237B6135
:100730000023BB610023FB6107F10C030021184675
:1007400001F054FE0346002B01D000F04BF900BF2E
:100750005037BD4680BD00BF0038024000700040E9
:1007600080B584B000AF3B4600221A605A609A60A0
:10077000DA60214B214A1A601F4B00225A601E4B3F
:1007800000229A601C4B01221A611B4B01221A762F
:10079000194B002283F82020174B0022DA62164BF7
:1007A000174A9A62144B0022DA60134B0122DA6175
:1007B000114B002283F830200F4B01225A610E4862
:1007C00000F088FB0346002B01D000F00BF900235A
:1007D0003B6001237B600123BB603B461946064812
:1007E00000F06AFE0346002B01D000F0FBF800BFCA
:1007F0001037BD4680BD00BF8400002000200140AE
:100800000100000F80B500AF114B124A1A60104B67
:100810004FF4E1325A600E4B00229A600C4B0022DA
:10082000DA600B4B00221A61094B0C225A61084B0B
:1008300000229A61064B0022DA61054801F0B6FFFA
:100840000346002B01D000F0CDF800BF80BD00BFF3
:10085000CC0000200010014080B58AB000AF07F145
:10086000140300221A605A609A60DA601A61002349
:100870003B613C4B1B6B3B4A43F004031363394B16
:100880001B6B03F004033B613B690023FB60354BAA
:100890001B6B344A43F001031363324B1B6B03F0B1
:1008A0000103FB60FB680023BB602E4B1B6B2D4AD2
:1008B00043F0020313632B4B1B6B03F00203BB607B
:1008C000BB6800237B60274B1B6B264A43F0080361
:1008D0001363244B1B6B03F008037B607B680022CF
:1008E0004FF48051204801F0D7FA00220C211F4814
:1008F00001F0D2FA4FF4C0437B614FF48813BB611F
:100900000123FB6107F114031946194801F040F96E
:100910004FF480537B610123BB610023FB61002303
:100920003B6207F1140319460F4801F031F90C231B
:100930007B610123BB610023FB6100233B6207F164
:1009400014031946094801F023F900220021282048
:1009500001F0D9F8282001F0F2F800BF2837BD4691
:1009600080BD00BF0038024000040240000C02407D
:100970000008024080B584B000AF0346FB80FB88CE
:10098000B3F5005F03D0FB88B3F5804F20D100237F
:10099000FB8115E0012204210F4801F07DFA0122BC
:1009A0004FF480510D4801F077FA002208210A48DF
:1009B00001F072FA0A4802F07DFBFB890133FB81EA
:1009C000FB8944F61F629342E4D9282001F0C5F860
:1009D00000BF1037BD4680BD000C0240000402403D
:1009E0007041000880B400AF72B600BFFEE700009F
:1009F00080B483B000AF00237B60104B5B6C0F4A68
:100A000043F4804353640D4B5B6C03F480437B6081
:100A10007B6800233B60094B1B6C084A43F0805302
:100A20001364064B1B6C03F080533B603B6800BFB4
:100A30000C37BD465DF8047B704700BF00380240AC
:100A400080B58AB000AF786007F1140300221A6005
:100A50005A609A60DA601A617B681B681B4A93428D
:100A60002FD100233B611A4B5B6C194A43F480730E
:100A70005364174B5B6C03F480733B613B69002349
:100A8000FB60134B1B6B124A43F001031363104BC3
:100A90001B6B03F00103FB60FB6801237B610323F5
:100AA000BB610023FB6107F114031946094801F0FB
:100AB0006FF800220021122001F025F8122001F029
:100AC0003EF800BF2837BD4680BD00BF0020014072
:100AD000003802400000024080B58AB000AF786064
:100AE00007F1140300221A605A609A60DA601A61F2
:100AF0007B681B68194A93422CD100233B61184B39
:100B00005B6C174A43F010035364154B5B6C03F0A6
:100B100010033B613B690023FB60114B1B6B104AC8
:100B200043F0010313630E4B1B6B03F00103FB60E7
:100B3000FB684FF4C0637B610223BB610023FB6150
:100B400003233B6207237B6207F114031946054820
:100B500001F01EF800BF2837BD4680BD00100140DF
:100B6000003802400000024080B400AFFEE780B4CD
:100B700000AFFEE780B400AFFEE780B400AFFEE751
:100B800080B400AFFEE780B400AF00BFBD465DF8A3
:100B9000047B704780B400AF00BFBD465DF8047BA6
:100BA000704780B400AF00BFBD465DF8047B70475E
:100BB00080B500AF00F04AF900BF80BD80B500AF3E
:100BC000024800F03DFB00BF80BD00BF8400002054
:100BD00080B500AF4FF4005001F078F94FF4804039
:100BE00001F074F900BF80BD80B586B000AFF86039
:100BF000B9607A6000237B610AE0AFF300800146B0
:100C0000BB685A1CBA60CAB21A707B6901337B6137
:100C10007A697B689A42F0DB7B6818461837BD46D4
:100C200080BD80B586B000AFF860B9607A600023FF
:100C30007B6109E0BB685A1CBA601B781846AFF3A9
:100C400000807B6901337B617A697B689A42F1DBC2
:100C50007B6818461837BD4680BD80B483B000AFAE
:100C600078604FF0FF3318460C37BD465DF8047BC3
:100C7000704780B483B000AF786039603B684FF450
:100C800000525A60002318460C37BD465DF8047BBD
:100C9000704780B483B000AF7860012318460C37EA
:100CA000BD465DF8047B704780B485B000AFF86046
:100CB000B9607A60002318461437BD465DF8047B9E
:100CC0007047000080B586B000AF7860144A154BBD
:100CD000D31A7B617B693B61134B1B68002B02D1EC
:100CE000114B124A1A60104B1A687B6813443A6918
:100CF0009A4207D202F0A2FA03460C221A604FF081
:100D0000FF3309E0084B1B68FB60074B1A687B68E0
:100D10001344054A1360FB6818461837BD4680BD6A
:100D20000080012000040000100100206802002063
:100D300080B400AF064BD3F88830054A43F4700303
:100D4000C2F8883000BFBD465DF8047B704700BF25
:100D500000ED00E0DFF834D00D480E490E4A0023C4
:100D600002E0D458C4500433C4188C42F9D30B4A5F
:100D70000B4C002301E013600432A242FBD3FFF7C7
:100D8000D7FF02F061FAFFF701FC704700800120F5
:100D90000000002068000020E041000868000020FA
:100DA00064020020FEE7000080B500AF0E4B1B6818
:100DB0000D4A43F4007313600B4B1B680A4A43F45B
:100DC00080631360084B1B68074A43F48073136009
:100DD000032000F08DFE0F2000F008F8FFF708FE5A
:100DE0000023184680BD00BF003C024080B582B0A1
:100DF00000AF7860124B1A68124B1B7819464FF4FB
:100E00007A73B3FBF1F3B2FBF3F3184600F0B3FED1
:100E10000346002B01D001230EE07B680F2B0AD87C
:100E2000002279684FF0FF3000F06DFE064A7B68C3
:100E30001360002300E0012318460837BD4680BD3B
:100E400000000020080000200400002080B400AF53
:100E5000064B1B781A46064B1B681344044A136062
:100E600000BFBD465DF8047B704700BF080000204E
:100E70001401002080B400AF034B1B681846BD4628
:100E80005DF8047B704700BF1401002080B584B07A
:100E900000AF7860FFF7EEFFB8607B68FB60FB682F
:100EA000B3F1FF3F05D00A4B1B781A46FB68134489
:100EB000FB6000BFFFF7DEFF0246BB68D31AFA688B
:100EC0009A42F7D800BF00BF1037BD4680BD00BFB3
:100ED0000800002080B584B000AF78600023FB7369
:100EE0007B68002B01D1012333E07B681B6C002B56
:100EF00009D17868FFF7A4FD7B6800225A647B68FB
:100F0000002283F83C207B681B6C03F01003002B4D
:100F100018D17B681B6C23F4885323F0020343F041
:100F200002027B681A64786800F0E8FB7B680022A4
:100F30005A647B681B6C23F0030343F001027B6857
:100F40001A6401E00123FB737B68002283F83C20D4
:100F5000FB7B18461037BD4680BD000080B485B0CD
:100F600000AF78600023BB607B6893F83C30012BB6
:100F700001D1022397E07B68012283F83C207B6843
:100F80001B689B6803F00103012B18D07B681B686A
:100F90009A687B681B6842F001029A60454B1B68A7
:100FA000454AA2FB03239A0C13465B001344BB6023
:100FB00002E0BB68013BBB60BB68002BF9D17B68DA
:100FC0001B689B6803F00103012B5FD17B681B6CDE
:100FD00023F4E06323F0010343F480727B681A6416
:100FE0007B681B685B6803F48063002B07D07B6819
:100FF0001B6C23F4405343F480527B681A647B6873
:101000001B6C03F48053B3F5805F06D17B685B6C87
:1010100023F006027B685A6402E07B6800225A646F
:101020007B68002283F83C20244BFB607B681B68B4
:101030006FF022021A60FB685B6803F01F03002B4D
:101040000FD17B681B689B6803F04053002B29D1AC
:101050007B681B689A687B681B6842F080429A60D4
:1010600020E07B681B68164A93421BD17B681B6893
:101070009B6803F04053002B14D17B681B689A686F
:101080007B681B6842F080429A600BE07B681B6CB7
:1010900043F010027B681A647B685B6C43F00102CA
:1010A0007B685A64002318461437BD465DF8047BFC
:1010B000704700BF0000002083DE1B430023014077
:1010C0000020014080B483B000AF78607B6893F863
:1010D0003C30012B01D1022321E07B68012283F8FF
:1010E0003C207B681B689A687B681B6822F00102C1
:1010F0009A607B681B689B6803F00103002B09D191
:101100007B681B6C23F4885323F0010343F0010236
:101110007B681A647B68002283F83C200023184611
:101120000C37BD465DF8047B704780B584B000AFD6
:10113000786039600023FB607B681B689B6803F460
:101140008063B3F5806F13D17B681B689B6803F4E1
:101150008073B3F5807F0BD17B681B6C43F020025A
:101160007B681A647B68002283F83C20012363E0DB
:10117000FFF780FEF86021E03B68B3F1FF3F1DD030
:101180003B68002B07D0FFF775FE0246FB68D31AB9
:101190003A689A4212D27B681B681B6803F002030C
:1011A000022B0BD07B681B6C43F004027B681A6433
:1011B0007B68002283F83C2003233DE07B681B68AA
:1011C0001B6803F00203022BD6D17B681B686FF00B
:1011D00012021A607B681B6C43F400727B681A640D
:1011E0007B681B689B6803F04053002B23D17B680E
:1011F0001B7E002B1FD17B681B68DB6A03F4700326
:10120000002B06D07B681B689B6803F48063002B6F
:1012100011D17B681B6C23F480727B681A647B6835
:101220001B6C03F48053002B05D17B681B6C43F0CF
:1012300001027B681A64002318461037BD4680BD42
:1012400080B586B000AF786000237B6100233B61EE
:101250007B681B681B68FB607B681B685B68BB6006
:10126000FB6803F002037B61BB6803F020033B6172
:101270007B69002B49D03B69002B46D07B681B6CF7
:1012800003F01003002B05D17B681B6C43F4007244
:101290007B681A647B681B689B6803F04053002BD3
:1012A0002BD17B681B7E002B27D17B681B68DB6AF8
:1012B00003F47003002B06D07B681B689B6803F463
:1012C0008063002B19D17B681B685A687B681B6898
:1012D00022F020025A607B681B6C23F480727B68CA
:1012E0001A647B681B6C03F48053002B05D17B6868
:1012F0001B6C43F001027B681A64786800F0BDF84B
:101300007B681B686FF012021A60FB6803F004032D
:101310007B61BB6803F080033B617B69002B57D086
:101320003B69002B54D07B681B6C03F01003002B2F
:1013300005D17B681B6C43F400527B681A647B68A0
:101340001B689B6803F44013002B39D17B681B6832
:101350009B6B03F44013002B06D07B681B689B68D3
:1013600003F48063002B2BD17B681B685B6803F45C
:101370008063002B24D17B681B689B6803F040537B
:10138000002B1DD17B681B7E002B19D17B681B684D
:101390005A687B681B6822F080025A607B681B6C6D
:1013A00023F480527B681A647B681B6C03F480739F
:1013B000002B05D17B681B6C43F001027B681A642B
:1013C000786800F097FA7B681B686FF00C021A606F
:1013D000FB6803F001037B61BB6803F040033B61E2
:1013E0007B69002B17D03B69002B14D07B681B68EE
:1013F0001B6803F00103012B0DD17B681B6C43F4C8
:1014000080327B681A64786800F041F87B681B685A
:101410006FF001021A60FB6803F020037B61BB6878
:1014200003F080633B617B69002B15D03B69002B87
:1014300012D07B685B6C43F002027B685A647B6865
:101440001B686FF020021A60786800F02AF87B6849
:101450001B686FF020021A6000BF1837BD4680BDC0
:1014600080B483B000AF78607B681B68DB6C184683
:101470000C37BD465DF8047B704780B483B000AF85
:10148000786000BF0C37BD465DF8047B704780B4C0
:1014900083B000AF786000BF0C37BD465DF8047BB9
:1014A000704780B483B000AF786000BF0C37BD4692
:1014B0005DF8047B7047000080B485B000AF7860B1
:1014C00039600023BB607B6893F83C30012B01D16D
:1014D000022305E17B68012283F83C203B681B68FE
:1014E000092B25D97B681B68D9683B681B689BB2B0
:1014F0001A4613465B0013441E3B072202FA03F30D
:10150000DA437B681B680A40DA607B681B68D9682D
:101510003B689A683B681B689BB2184603465B00B1
:1015200003441E3B9A407B681B680A43DA6022E052
:101530007B681B6819693B681B689BB21A46134697
:101540005B001344072202FA03F3DA437B681B684B
:101550000A401A617B681B6819693B689A683B6896
:101560001B689BB2184603465B0003449A407B68A5
:101570001B680A431A613B685B68062B24D87B68AA
:101580001B68596B3B685A6813469B001344053B24
:101590001F2202FA03F3DA437B681B680A405A638E
:1015A0007B681B68596B3B681B689BB218463B689D
:1015B0005A6813469B001344053B00FA03F27B680C
:1015C0001B680A435A634CE03B685B680C2B24D8C9
:1015D0007B681B68196B3B685A6813469B00134471
:1015E000233B1F2202FA03F3DA437B681B680A409D
:1015F0001A637B681B68196B3B681B689BB21846B3
:101600003B685A6813469B001344233B00FA03F2DD
:101610007B681B680A431A6323E07B681B68D96AEE
:101620003B685A6813469B001344413B1F2202FA51
:1016300003F3DA437B681B680A40DA627B681B6845
:10164000D96A3B681B689BB218463B685A681346C8
:101650009B001344413B00FA03F27B681B680A437A
:10166000DA62224BFB607B681B68214A934209D1F6
:101670003B681B68122B05D1FB685B6843F4800252
:10168000FB685A607B681B68194A934223D13B6808
:101690001B68102B03D03B681B68112B1BD1FB6808
:1016A0005B6843F40002FB685A603B681B68102BC0
:1016B00011D1104B1B68104AA2FB03239A0C13464E
:1016C0009B0013445B00BB6002E0BB68013BBB6056
:1016D000BB68002BF9D17B68002283F83C200023F3
:1016E00018461437BD465DF8047B7047002301405F
:1016F000002001400000002083DE1B4380B485B041
:1017000000AF7860794BFB60FB685B6823F4403284
:10171000FB685A60FB685A687B685B681A43FB6821
:101720005A607B681B685A687B681B6822F4807269
:101730005A607B681B6859687B681B691A027B6862
:101740001B680A435A607B681B685A687B681B6881
:1017500022F040725A607B681B6859687B689A68FF
:101760007B681B680A435A607B681B689A687B68C1
:101770001B6822F400629A607B681B6899687B682A
:10178000DA687B681B680A439A607B689B6A584AE0
:10179000934222D07B681B689A687B681B6822F0A2
:1017A00070629A607B681B6899687B689A6A7B683C
:1017B0001B680A439A607B681B689A687B681B6891
:1017C00022F040529A607B681B6899687B68DA6AED
:1017D0007B681B680A439A600FE07B681B689A6805
:1017E0007B681B6822F070629A607B681B689A684D
:1017F0007B681B6822F040529A607B681B689A687D
:101800007B681B6822F002029A607B681B689968FB
:101810007B681B7E5A007B681B680A439A607B6862
:1018200093F82030002B1BD07B681B685A687B68BC
:101830001B6842F400625A607B681B685A687B68C8
:101840001B6822F460425A607B681B6859687B6899
:101850005B6A013B5A037B681B680A435A6007E0D6
:101860007B681B685A687B681B6822F400625A60B8
:101870007B681B68DA6A7B681B6822F47002DA6294
:101880007B681B68D96A7B68DB69013B1A057B684A
:101890001B680A43DA627B681B689A687B681B686E
:1018A00022F400729A607B681B6899687B6893F8E1
:1018B00030305A027B681B680A439A607B681B6859
:1018C0009A687B681B6822F480629A607B681B6858
:1018D00099687B685B699A027B681B680A439A6017
:1018E00000BF1437BD465DF8047B704700230140FC
:1018F0000100000F80B483B000AF786000BF0C37E8
:10190000BD465DF8047B704780B485B000AF786059
:101910007B6803F00703FB600C4BDB68BB60BA68B5
:101920004FF6FF031340BB60FB681A02BB6813430A
:1019300043F0BF6343F40033BB60044ABB68D36029
:1019400000BF1437BD465DF8047B704700ED00E032
:1019500080B400AF044BDB681B0A03F00703184692
:10196000BD465DF8047B704700ED00E080B483B0B5
:1019700000AF0346FB7197F90730002B0BDBFB79B7
:1019800003F01F02074997F907305B09012000FAAD
:1019900002F241F8232000BF0C37BD465DF8047BFE
:1019A000704700BF00E100E080B483B000AF0346A1
:1019B000FB7197F90730002B12DBFB7903F01F0254
:1019C0000A4997F907305B09012000FA02F2203337
:1019D00041F82320BFF34F8F00BFBFF36F8F00BFCD
:1019E00000BF0C37BD465DF8047B704700E100E0A6
:1019F00080B483B000AF03463960FB7197F90730BC
:101A0000002B0ADB3B68DAB20C4997F90730120168
:101A1000D2B20B4483F800230AE03B68DAB20849EB
:101A2000FB7903F00F03043B1201D2B20B441A7688
:101A300000BF0C37BD465DF8047B704700E100E055
:101A400000ED00E080B489B000AFF860B9607A6062
:101A5000FB6803F00703FB61FB69C3F10703042B79
:101A600028BF0423BB61FB690433062B02D9FB6941
:101A7000033B00E000237B614FF0FF32BB6902FAB9
:101A800003F3DA43BB681A407B699A404FF0FF3199
:101A90007B6901FA03F3D9437B680B401343184673
:101AA0002437BD465DF8047B7047000080B582B0E6
:101AB00000AF78607B68013BB3F1807F01D30123E5
:101AC0000FE00A4A7B68013B53600F214FF0FF3063
:101AD000FFF78EFF054B00229A60044B07221A6025
:101AE000002318460837BD4680BD00BF10E000E067
:101AF00080B582B000AF78607868FFF705FF00BF5F
:101B00000837BD4680BD80B586B000AF0346B960DA
:101B10007A60FB7300237B61FFF71AFF78617A68B4
:101B2000B9687869FFF78EFF024697F90F301146C2
:101B30001846FFF75DFF00BF1837BD4680BD80B572
:101B400082B000AF0346FB7197F907301846FFF7E4
:101B50000DFF00BF0837BD4680BD80B582B000AF25
:101B60000346FB7197F907301846FFF71DFF00BFCA
:101B70000837BD4680BD80B582B000AF7860786818
:101B8000FFF794FF034618460837BD4680BD0000A6
:101B900080B489B000AF7860396000237B61002396
:101BA0003B610023BB610023FB6159E10122FB691A
:101BB00002FA03F37B613B681B687A6913403B615F
:101BC0003A697B699A4240F048813B685B6803F060
:101BD0000303012B05D03B685B6803F00303022B72
:101BE00030D17B689B68BB61FB695B00032202FA12
:101BF00003F3DB43BA691340BB613B68DA68FB69F6
:101C00005B0002FA03F3BA691343BB617B68BA69EC
:101C10009A607B685B68BB610122FB6902FA03F38F
:101C2000DB43BA691340BB613B685B681B0903F087
:101C30000102FB6902FA03F3BA691343BB617B68D3
:101C4000BA695A603B685B6803F00303032B17D043
:101C50007B68DB68BB61FB695B00032202FA03F36C
:101C6000DB43BA691340BB613B689A68FB695B0060
:101C700002FA03F3BA691343BB617B68BA69DA609D
:101C80003B685B6803F00303022B23D1FB69DA088E
:101C90007B68083253F82230BB61FB6903F007030D
:101CA0009B000F2202FA03F3DB43BA691340BB61C6
:101CB0003B681A69FB6903F007039B0002FA03F310
:101CC000BA691343BB61FB69DA087B680832B969FA
:101CD00043F822107B681B68BB61FB695B00032231
:101CE00002FA03F3DB43BA691340BB613B685B68EC
:101CF00003F00302FB695B0002FA03F3BA691343C2
:101D0000BB617B68BA691A603B685B6803F4403367
:101D1000002B00F0A2800023FB60574B5B6C564AFF
:101D200043F480435364544B5B6C03F48043FB6087
:101D3000FB68524AFB699B08023352F82330BB61AF
:101D4000FB6903F003039B000F2202FA03F3DB435A
:101D5000BA691340BB617B68494A934219D07B68DA
:101D6000484A934213D07B68474A93420DD07B6820
:101D7000464A934207D07B68454A934201D10423E7
:101D800008E0072306E0032304E0022302E0012326
:101D900000E00023FA6902F0030292009340BA695E
:101DA0001343BB613549FB699B080233BA6941F8AB
:101DB0002320384B9B68BB613B69DB43BA69134006
:101DC000BB613B685B6803F48013002B03D0BA69E6
:101DD0003B691343BB612F4ABB6993602D4BDB68A2
:101DE000BB613B69DB43BA691340BB613B685B681D
:101DF00003F40013002B03D0BA693B691343BB61A2
:101E0000244ABB69D360234B5B68BB613B69DB43FE
:101E1000BA691340BB613B685B6803F40033002B75
:101E200003D0BA693B691343BB611A4ABB6953606B
:101E3000184B1B68BB613B69DB43BA691340BB614C
:101E40003B685B6803F48033002B03D0BA693B69BD
:101E50001343BB610F4ABB691360FB690133FB612C
:101E6000FB690F2B7FF6A2AE00BF00BF2437BD4633
:101E70005DF8047B704700BF003802400038014025
:101E8000000002400004024000080240000C024032
:101E900000100240003C014080B483B000AF786085
:101EA0000B467B8013467B707B78002B03D07A88AF
:101EB0007B689A6103E07B881A047B689A6100BFA3
:101EC0000C37BD465DF8047B7047000080B582B0DA
:101ED00000AF0346FB80084B5A69FB881340002B78
:101EE00006D0054AFB885361FB881846FEF742FD81
:101EF00000BF0837BD4680BD003C014080B586B0BC
:101F000000AF78607B68002B01D1012367E27B681A
:101F10001B6803F00103002B75D0884B9B6803F00E
:101F20000C03042B0CD0854B9B6803F00C03082B8F
:101F300012D1824B5B6803F48003B3F5800F0BD1A1
:101F40007E4B1B6803F40033002B5BD07B685B681F
:101F5000002B57D1012342E27B685B68B3F5803FD9
:101F600006D1764B1B68754A43F4803313601DE03D
:101F70007B685B68B3F5A02F0CD1704B1B686F4A70
:101F800043F4802313606D4B1B686C4A43F4803329
:101F900013600BE0694B1B68684A23F480331360BD
:101FA000664B1B68654A23F4802313607B685B687B
:101FB000002B13D0FEF75EFF386108E0FEF75AFFF2
:101FC00002463B69D31A642B01D9032307E25B4B1A
:101FD0001B6803F40033002BF0D014E0FEF74AFF37
:101FE000386108E0FEF746FF02463B69D31A642BCE
:101FF00001D90323F3E1514B1B6803F40033002B99
:10200000F0D100E000BF7B681B6803F00203002BE7
:1020100063D04A4B9B6803F00C03002B0BD0474B5B
:102020009B6803F00C03082B1CD1444B5B6803F442
:102030008003002B16D1414B1B6803F00203002BD9
:1020400005D07B68DB68012B01D00123C7E13B4B46
:102050001B6823F0F8027B681B69DB0037491343D8
:102060000B603AE07B68DB68002B20D0344B012208
:102070001A60FEF7FFFE386108E0FEF7FBFE02463D
:102080003B69D31A022B01D90323A8E12B4B1B6810
:1020900003F00203002BF0D0284B1B6823F0F8025A
:1020A0007B681B69DB00254913430B6015E0244B5B
:1020B00000221A60FEF7DEFE386108E0FEF7DAFE65
:1020C00002463B69D31A022B01D9032387E11B4B3C
:1020D0001B6803F00203002BF0D17B681B6803F040
:1020E0000803002B36D07B685B69002B16D0154B9C
:1020F00001221A60FEF7BEFE386108E0FEF7BAFE64
:1021000002463B69D31A022B01D9032367E10B4B2B
:102110005B6F03F00203002BF0D01BE0094B0022A1
:102120001A60FEF7A7FE38610EE0FEF7A3FE024636
:102130003B69D31A022B07D9032350E10038024030
:1021400000004742800E4742884B5B6F03F002035A
:10215000002BEAD17B681B6803F00403002B00F01E
:1021600097800023FB75814B1B6C03F08053002B81
:102170000FD10023BB607D4B1B6C7C4A43F0805326
:1021800013647A4B1B6C03F08053BB60BB68012364
:10219000FB75774B1B6803F48073002B18D1744BCD
:1021A0001B68734A43F480731360FEF763FE386163
:1021B00008E0FEF75FFE02463B69D31A022B01D905
:1021C00003230CE16A4B1B6803F48073002BF0D0EF
:1021D0007B689B68012B06D1644B1B6F634A43F0FD
:1021E000010313671CE07B689B68052B0CD15F4BD8
:1021F0001B6F5E4A43F0040313675C4B1B6F5B4A23
:1022000043F0010313670BE0584B1B6F574A23F051
:1022100001031367554B1B6F544A23F004031367E4
:102220007B689B68002B15D0FEF724FE38610AE01E
:10223000FEF720FE02463B69D31A41F288329342F0
:1022400001D90323CBE0494B1B6F03F00203002BA2
:10225000EED014E0FEF70EFE38610AE0FEF70AFE4B
:1022600002463B69D31A41F28832934201D90323D3
:10227000B5E03E4B1B6F03F00203002BEED1FB7D5C
:10228000012B05D1394B1B6C384A23F08053136462
:102290007B689B69002B00F0A180344B9B6803F0A6
:1022A0000C03082B5CD07B689B69022B41D1314B1E
:1022B00000221A60FEF7DEFD386108E0FEF7DAFD65
:1022C00002463B69D31A022B01D9032387E0274B2F
:1022D0001B6803F00073002BF0D17B68DA697B6820
:1022E0001B6A1A437B685B6A9B011A437B689B6A83
:1022F0005B08013B1B041A437B68DB6A1B061B4916
:1023000013434B601B4B01221A60FEF7B3FD38618B
:1023100008E0FEF7AFFD02463B69D31A022B01D954
:1023200003235CE0114B1B6803F00073002BF0D01B
:1023300054E0104B00221A60FEF79CFD386108E063
:10234000FEF798FD02463B69D31A022B01D90323FD
:1023500045E0064B1B6803F00073002BF0D13DE015
:102360007B689B69012B07D1012338E000380240CC
:1023700000700040600047421B4B5B68FB607B685D
:102380009B69012B28D0FB6803F480027B68DB6922
:102390009A4221D1FB6803F03F027B681B6A9A4294
:1023A0001AD1FA6847F6C07313407A68526A9201EC
:1023B000934211D1FB6803F440327B689B6A5B084F
:1023C000013B1B049A4207D1FB6803F070627B68F3
:1023D000DB6A1B069A4201D0012300E00023184665
:1023E0001837BD4680BD00BF0038024080B584B0BC
:1023F00000AF786039607B68002B01D10123CCE00D
:10240000684B1B6803F007033A689A420CD9654B86
:102410003A68D2B21A70634B1B6803F007033A683C
:102420009A4201D00123B8E07B681B6803F00203E5
:10243000002B20D07B681B6803F00403002B05D021
:10244000594B9B68584A43F4E05393607B681B6880
:1024500003F00803002B05D0534B9B68524A43F40A
:1024600060439360504B9B6823F0F0027B689B684D
:102470004D4913438B607B681B6803F00103002BFD
:1024800044D07B685B68012B07D1474B1B6803F482
:102490000033002B19D101237FE07B685B68022B9E
:1024A00003D07B685B68032B07D13F4B1B6803F0AD
:1024B0000073002B09D101236FE03B4B1B6803F035
:1024C0000203002B01D1012367E0374B9B6823F007
:1024D00003027B685B68344913438B60FEF7CAFCD8
:1024E000F8600AE0FEF7C6FC0246FB68D31A41F228
:1024F0008832934201D903234FE02B4B9B6803F0B2
:102500000C027B685B689B009A42EBD1254B1B68F1
:1025100003F007033A689A420CD2224B3A68D2B2CF
:102520001A70204B1B6803F007033A689A4201D0E7
:10253000012332E07B681B6803F00403002B08D002
:10254000194B9B6823F4E0527B68DB681649134300
:102550008B607B681B6803F00803002B09D0124BCB
:102560009B6823F460427B681B69DB000E491343C0
:102570008B6000F021F802460B4B9B681B0903F0AF
:102580000F030A49CB5C22FA03F3094A1360094B93
:102590001B681846FEF72AFC002318461037BD4674
:1025A00080BD00BF003C024000380240844100086A
:1025B00000000020040000202DE9B04F90B000AFD3
:1025C00000237B630023FB6300233B630023BB6387
:1025D000594B9B6803F00C03082B0DD0082B00F21D
:1025E000A180002B02D0042B03D09BE0534BBB6394
:1025F0009BE0534BBB6398E04F4B5B6803F03F039A
:102600007B634D4B5B6803F48003002B28D04A4B5F
:102610005B689B0900223B627A623B6AC3F3080055
:102620000021474B03FB01F2002300FB03F313449B
:10263000434AA0FB0212FA620A46BA62FA6A1344DB
:10264000FB627B6B0022BB61FA61D7E90623D7E905
:102650000A01FDF71DFE02460B461346FB6353E0DD
:10266000354B5B689B0900223B617A613B69C3F390
:10267000080A4FF0000B52465B464FF000004FF047
:102680000001590141EAD261500102460B46B2EB0A
:102690000A0863EB0B094FF000024FF000034FEA0A
:1026A000891343EA98634FEA8812B2EB080463EB9C
:1026B00009054FF000024FF00003EB0043EA5473AA
:1026C000E20014461D4614EB0A033B6045EB0B0386
:1026D0007B604FF000024FF00003D7E90045294628
:1026E0008B02214643EA915321468A02104619463D
:1026F0007B6B0022BB60FA60D7E90223FDF7C8FDBF
:1027000002460B461346FB630B4B5B681B0C03F046
:10271000030301335B003B63FA6B3B6BB2FBF3F3E8
:10272000BB6302E0054BBB6300BFBB6B1846403781
:10273000BD46BDE8B08F00BF003802400024F40061
:1027400040787D0180B400AF034B1B681846BD463E
:102750005DF8047B704700BF0000002080B500AF2B
:10276000FFF7F0FF0246054B9B689B0A03F0070347
:102770000349CB5C22FA03F3184680BD00380240BF
:102780009441000880B500AFFFF7DCFF0246054B1F
:102790009B685B0B03F007030349CB5C22FA03F34E
:1027A000184680BD003802409441000880B582B0D0
:1027B00000AF78607B68002B01D101233FE07B688C
:1027C00093F83D30DBB2002B06D17B68002283F802
:1027D0003C207868FEF780F97B68242283F83D204E
:1027E0007B681B68DA687B681B6822F40052DA6039
:1027F000786800F029F97B681B681A697B681B6898
:1028000022F490421A617B681B685A697B681B68D6
:1028100022F02A025A617B681B68DA687B681B68B1
:1028200042F40052DA607B6800221A647B6820223E
:1028300083F83D207B68202283F83E200023184641
:102840000837BD4680BD80B58AB002AFF860B96078
:102850003B601346FB8000237B61FB6893F83D30AF
:10286000DBB2202B7CD1BB68002B02D0FB88002B75
:1028700001D1012375E0FB6893F83C30012B01D1B5
:1028800002236EE0FB68012283F83C20FB680022F3
:102890001A64FB68212283F83D20FEF7EBFA786189
:1028A000FB68FA889A84FB68FA88DA84FB689B687C
:1028B000B3F5805F08D1FB681B69002B04D10023AE
:1028C000FB61BB68BB6103E0BB68FB610023BB61CC
:1028D000FB68002283F83C202AE03B6800937B6978
:1028E00000228021F86800F040F80346002B01D058
:1028F000032336E0FB69002B0BD1BB691B881A460A
:10290000FB681B68C2F308025A60BB690233BB61F3
:1029100007E0FB691A78FB681B685A60FB690133A2
:10292000FB61FB68DB8C9BB2013B9AB2FB68DA84EB
:10293000FB68DB8C9BB2002BCFD13B6800937B699B
:1029400000224021F86800F010F80346002B01D067
:10295000032306E0FB68202283F83D20002300E0EB
:10296000022318462037BD4680BD80B590B000AF29
:10297000F860B9603B601346FB7150E0BB6CB3F18B
:10298000FF3F4CD0BB6C002B07D0FEF773FA02461A
:102990003B68D31ABA6C9A4241D2FB681B680C336D
:1029A000BB62BB6A53E8003F7B627B6A23F4D0734F
:1029B000FB63FB681B680C33FA6B7A633B63396B10
:1029C0007A6B41E80023FB62FB6A002BE5D1FB68D0
:1029D0001B6814337B617B6953E8003F3B613B69B3
:1029E00023F00103BB63FB681B681433BA6B3A62C4
:1029F000FB61F9693A6A41E80023BB61BB69002BBE
:102A0000E5D1FB68202283F83D20FB68202283F873
:102A10003E20FB68002283F83C2003230FE0FB6884
:102A20001B681A68BB681340BA689A420CBF01233E
:102A30000023DBB21A46FB799A429FD00023184646
:102A40004037BD4680BD00002DE9B04FC0B000AF9B
:102A5000C7F8F400D7F8F4301B681B6923F4405022
:102A6000D7F8F430D968D7F8F4301A6840EA01038F
:102A70001361D7F8F4309A68D7F8F4301B691A4319
:102A8000D7F8F4305B691A43D7F8F430DB691343A5
:102A9000C7F8F830D7F8F4301B68DB6823F4164128
:102AA00021F00C01D7F8F4301A68D7F8F8300B434E
:102AB000D360D7F8F4301B685B6923F44070D7F813
:102AC000F4309969D7F8F4301A6840EA0103536189
:102AD000D7F8F4301A688F4B9A4205D0D7F8F43003
:102AE0001A688D4B9A4204D1FFF74CFEC7F8FC00E0
:102AF00003E0FFF733FEC7F8FC00D7F8F430DB69DA
:102B0000B3F5004F40F00C81D7F8FC300022C7F835
:102B1000E830C7F8EC20D7E93A4522462B46911811
:102B2000B9655B41FB65D7E91623214612EB010825
:102B3000294643EB01094FF000024FF000034FEA32
:102B4000C90343EA58734FEAC802904699462346A0
:102B500018EB0303C7F8E0302B4649EB0303C7F833
:102B6000E430D7F8F4305B680022C7F8D830C7F8F3
:102B7000DC20D7E936120B46DB183B65134642EBE7
:102B800003037B65D7E91423D7E93801FDF780FB00
:102B900002460B46614BA3FB02235B091C01D7F8DD
:102BA000FC300022C7F8D030C7F8D420D7E93489E8
:102BB00042464B469118B9645B41FB64D7E9122346
:102BC000414612EB010A494643EB010B4FF000026C
:102BD0004FF000034FEACB0343EA5A734FEACA02AD
:102BE00092469B4643461AEB0303C7F8C8304B4650
:102BF0004BEB0303C7F8CC30D7F8F4305B68002206
:102C0000C7F8C030C7F8C420D7E930120B46DB182C
:102C10003B64134642EB03037B64D7E91023D7E9F7
:102C20003201FDF735FB02460B4611463B4BA3FB39
:102C300001235B09642202FB03F3CB1ADB0003F1DF
:102C40003202364BA3FB02235B095B0003F4F873EB
:102C50001C44D7F8FC300022C7F8B830C7F8BC20B5
:102C6000D7E92E8942464B469118B9635B41FB6315
:102C7000D7E90E2341465118396349464B417B63DE
:102C80004FF000024FF00003D7E90CAB5946CB00E0
:102C9000514643EA51735146CA001046194603464D
:102CA00042469B18C7F8B0304B460A4642EB030336
:102CB000C7F8B430D7F8F4305B680022C7F8A83002
:102CC000C7F8AC20D7E92A120B46DB18BB621346C3
:102CD00042EB0303FB62D7E90A23D7E92C01FDF796
:102CE000D7FA02460B460D4BA3FB02135B09642186
:102CF00001FB03F3D31ADB003233084AA2FB0323A0
:102D00005B0903F00702D7F8F4301B6822449A608D
:102D100006E100BF00100140001401401F85EB5187
:102D2000D7F8FC300022C7F8A030C7F8A420D7E9B4
:102D3000288942464B46911839625B417B62D7E94C
:102D4000082341465418494643EB01054FF0000261
:102D50004FF00003EB0043EA5473E20014461D46B3
:102D60004346E318C7F898304B4645EB0303C7F8D2
:102D70009C30D7F8F4305B680022C7F89030C7F871
:102D800094204FF000024FF00003D7E92445294674
:102D90008B00214643EA917321468A00D7E9260138
:102DA000FDF776FA02460B46604BA3FB02235B0954
:102DB0001C01D7F8FC300022C7F88830C7F88C20F7
:102DC000D7E9228942464B469118B9615B41FB61C4
:102DD000D7E9062341465118396149464B417B6189
:102DE0004FF000024FF00003D7E904AB5946CB0087
:102DF000514643EA51735146CA00104619460346EC
:102E000042469B18C7F880304B460A4642EB030304
:102E1000C7F88430D7F8F4305B680022BB67FA67E4
:102E20004FF000024FF00003D7E91E8949468B009E
:102E3000414643EA917341468A00D7E92001FDF7F4
:102E400027FA02460B461146384BA3FB01235B09C8
:102E5000642202FB03F3CB1A1B013233334AA2FB79
:102E600003235B0903F0F0031C44D7F8FC30002275
:102E70003B677A67D7E91C8942464B469118B9608F
:102E80005B41FB60D7E9022341465118396049464E
:102E90004B417B604FF000024FF00003D7E900ABDD
:102EA0005946CB00514643EA51735146CA00104679
:102EB0001946034642469B18BB664B460A4642EB00
:102EC0000303FB66D7F8F4305B6800223B667A6642
:102ED0004FF000024FF00003D7E9188949468B00F4
:102EE000414643EA917341468A00D7E91A01FDF74A
:102EF000CFF902460B460D4BA3FB02135B0964217D
:102F000001FB03F3D31A1B013233084AA2FB03234C
:102F10005B0903F00F02D7F8F4301B6822449A6073
:102F200000BF07F58077BD46BDE8B08F1F85EB5128
:102F3000002310B50446C0E90033C0E904338360C0
:102F400081814366C2818361194608225C3000F0AA
:102F500026F90D4B63620D4BA3620D4BE3620D4BE3
:102F600023630D4B24629C4206D003F16802944215
:102F700002D0D0339C4205D104F15800BDE8104086
:102F800000F086B910BD00BF193100083B310008C0
:102F9000733100089731000818010020024A0349E4
:102FA000034800F069B800BF0C000020ED3D0008A8
:102FB0001800002041680C4B994210B5044601D01E
:102FC00000F014FFA168094B994202D0204600F09E
:102FD0000DFFE168064B994204D02046BDE8104041
:102FE00000F004BF10BD00BF1801002080010020C8
:102FF000E801002010B50B4B0B4C0C4A1A60204620
:1030000000220421FFF794FF04F168000122092146
:10301000FFF78EFF04F1D0000222BDE8104012211C
:10302000FFF786BF50020020180100209D2F0008E6
:10303000014800F02EB900BF59020020014800F0FD
:1030400029B900BF5902002010B50446FFF7F0FF70
:10305000236A1BB1BDE81040FFF7F0BF044B2362A9
:10306000044B1B68002BF5D1FFF7C4FFF2E700BF4C
:10307000B52F0008500200202DE9F8430746884686
:1030800014460026D4E90195B9F1010905D5246853
:10309000002CF7D13046BDE8F883AB89012B07D966
:1030A000B5F90E30013303D029463846C0470643F0
:1030B0006835E9E70FB407B5064904AB086853F86B
:1030C000042B8168019300F061FB03B05DF804EB11
:1030D00004B07047640000200EB400B59CB01DAB76
:1030E000029006906FF00041094807910491094948
:1030F00053F8042B05910068019302A900F01EFA11
:10310000029B00221A701CB05DF804EB03B07047FC
:10311000640000200802FFFF10B50C46B1F90E1044
:1031200000F068F80028ABBF636DA3891B1823F477
:103130008053ACBF6365A38110BD2DE9F0411F46EC
:103140008B89DB0505460C46164605D5B1F90E10F0
:103150000223002200F03CF8A389B4F90E1023F4F6
:103160008053A38132463B462846BDE8F04100F03B
:1031700053B810B50C46B1F90E1000F029F8431CF5
:10318000A38915BF606523F4805343F48053A38162
:1031900018BFA38110BDB1F90E1000F009B80244A8
:1031A0000346934200D1704703F8011BF9E7000082
:1031B00038B5064D0023044608462B60FDF74DFD4B
:1031C000431C02D12B6803B1236038BD5402002098
:1031D00038B5074D04460846114600222A601A46B3
:1031E000FDF762FD431C02D12B6803B1236038BD9B
:1031F0005402002038B5074D044608461146002207
:103200002A601A46FDF7F0FC431C02D12B6803B17B
:10321000236038BD5402002038B5074D04460846E7
:10322000114600222A601A46FDF7FBFC431C02D11E
:103230002B6803B1236038BD54020020014B18688D
:10324000704700BF6400002070B50D4D0D4C641B2D
:10325000A4100026A64209D10B4D0C4C00F078FFBB
:10326000641BA4100026A64205D170BD55F8043B8E
:1032700098470136EEE755F8043B98470136F2E7E8
:10328000D8410008D8410008D8410008DC410008B6
:10329000704770477047000037B5002944D051F897
:1032A000043C0190002BA1F10404B8BFE41800F025
:1032B000DFF81E4A0198136833B96360146003B0E5
:1032C000BDE8304000F0DAB8A34208D9256861199A
:1032D0008B4201BF19685B6849192160EDE71A4606
:1032E0005B680BB1A342FAD911685518A5420BD1FE
:1032F000246821445418A3421160E0D11C685B6823
:1033000053600C441460DAE702D90C230360D6E75B
:10331000256861198B4204BF19685B68636004BF4C
:10332000491921605460CAE703B030BD5C02002037
:1033300070B50E4E0C463168054611B900F02EFEF0
:1033400030602146284600F029FE431C0AD0C41CE8
:1033500024F00304A04207D0211A284600F01EFEE4
:10336000013001D14FF0FF34204670BD60020020D3
:103370002DE9F843CD1C25F0030508350C2D38BF89
:103380000C25002D074601DBA94205D90C233B6023
:1033900000263046BDE8F883DFF8D08000F068F8FA
:1033A000D8F800301C465CBB29463846FFF7C0FF02
:1033B000431C044655D1D8F800402646002E45D17E
:1033C000002C48D023683146384604EB030900F04E
:1033D000E5FD81453FD121686D1A29463846FFF742
:1033E000A7FF013037D023682B442360D8F8003082
:1033F000002B38D05A68A2422BD100225A600FE02D
:103400002268521B1FD40B2A17D96119A3422560C9
:1034100018BF5960636808BFC8F8001062514B605C
:10342000384604F10B0600F029F826F00706231DA4
:10343000F21AAED09B1BA350ABE7A3426268DDD16A
:10344000C8F80020ECE723466468ACE734467668A9
:10345000B4E71346CCE70C233B60384600F00EF887
:1034600097E72560DCE75B60FFDE00BF5C020020C1
:103470000148FFF70EBF00BF580200200148FFF7C8
:1034800009BF00BF580200202DE9F0478E681F4693
:10349000BE420B6882460C4690462CD88A8912F4AC
:1034A000906F26D06569096905EB4505A3EB010915
:1034B00005EBD5757B1C4B446D109D4238BF1D46F6
:1034C000530527D52946FFF753FF064660B3216908
:1034D0004A4600F073FDA38923F4906343F0800310
:1034E000A381266165614E44A5EB09052660A560B0
:1034F0003E46BE4200D93E4620683246414600F074
:1035000033FDA3689B1BA360236833442360002022
:10351000BDE8F0872A4600F05FFD06460028E0D1AE
:1035200021695046FFF7B8FE0C23CAF80030A38982
:1035300043F04003A3814FF0FF30E9E72DE9F04F5E
:1035400098468B891B069DB007460D4614460ED53E
:103550000B6963B94021FFF70BFF2860286120B990
:103560000C233B604FF0FF30D0E040236B61002321
:10357000099320238DF82930CDF80C803023DFF813
:10358000A4818DF82A304FF0010923469A4613F89A
:10359000012B0AB1252AF9D1BAEB040B0BD05B46FB
:1035A000224629463846FFF76FFF013000F0A98018
:1035B000099A5A4409929AF80030002B00F0A18031
:1035C00000234FF0FF32CDE905230AF1010A0493ED
:1035D00007938DF853301A935446052214F8011BB3
:1035E0005048FCF705FE049AD8B9D00644BF202302
:1035F0008DF85330110744BF2B238DF853309AF8C0
:1036000000302A2B15D0079A544600204FF00A0CA0
:10361000214611F8013B303B092B4DD9B0B107923F
:1036200014E0A0EB080309FA03F313430493A24642
:10363000D2E7039B191D1B680391002BBBBF5B42A4
:1036400042F0020207930793B8BF049223782E2B0F
:103650000CD163782A2B34D1039B1A1D1B6803926B
:10366000002BB8BF4FF0FF3302340593DFF8C4A03E
:10367000217803225046FCF7BBFD38B1049BA0EB38
:103680000A004022824013430134049314F8011BC2
:1036900025488DF828100622FCF7AAFD002838D00E
:1036A000224B1BBB039B073323F007030833039311
:1036B000099B3344099368E70CFB02320C46012056
:1036C000A6E700230134059319464FF00A0C204663
:1036D00010F8012B303A092A03D9002BC6D00591E6
:1036E000C4E70CFB012104460123F0E703AB009380
:1036F0002A460F4B04A93846AFF30080421C064609
:10370000D6D1AB895B063FF52DAF09981DB0BDE85A
:10371000F08F03AB00932A46054B04A9384600F00E
:10372000BDF9EBE79C410008A6410008000000003D
:1037300089340008A24100089368013B002B10B4B3
:10374000936008DA9469A34201DB0A2903D15DF88A
:10375000044B00F073BB1368581C106019700846C6
:103760005DF8044B7047F8B506460F461446D51869
:10377000AC4201D1002007E014F8011B3A46304664
:10378000FFF7DAFF431CF3D1F8BD00002DE9F04F3D
:103790000D469DB014469846064618B1036A0BB90B
:1037A000FFF752FC6B6ED90705D4AB899A0502D49A
:1037B000A86DFFF76EFDAB891B0701D52B699BB97F
:1037C0002946304600F078FB70B16B6EDC0704D5FB
:1037D0004FF0FF301DB0BDE8F08FAB899805F7D4EE
:1037E000A86DFFF757FDF3E70023099320238DF819
:1037F0002930CDF80C803023DFF8B0818DF82A30E5
:103800004FF0010923469A4613F8012B0AB1252AE5
:10381000F9D1BAEB040B0BD05B4622462946304661
:10382000FFF7A1FF013000F0A980099A5A440992DC
:103830009AF80030002B00F0A18000234FF0FF32F7
:10384000CDE905230AF1010A049307938DF853305B
:103850001A935446052214F8011B5448FCF7C8FC7F
:10386000049AD8B9D10644BF20238DF853301307EA
:1038700044BF2B238DF853309AF800302A2B15D0F3
:10388000079A544600204FF00A0C214611F8013BDC
:10389000303B092B4DD9B0B1079214E0A0EB0803DF
:1038A00009FA03F313430493A246D2E7039B191DBD
:1038B0001B680391002BBBBF5B4242F002020793DF
:1038C0000793B8BF049223782E2B0CD163782A2B50
:1038D00034D1039B1A1D1B680392002BB8BF4FF015
:1038E000FF3302340593DFF8D4A021780322504639
:1038F000FCF77EFC38B1049BA0EB0A00402282401A
:1039000013430134049314F8011B29488DF828103F
:103910000622FCF76DFC00283FD0264B1BBB039B07
:10392000073323F0070308330393099B3B440993B0
:1039300068E70CFB02320C460120A6E700230134A5
:10394000059319464FF00A0C204610F8012B303A27
:10395000092A03D9002BC6D00591C4E70CFB01212D
:1039600004460123F0E703AB00932A46124B04A957
:103970003046AFF300800746781CD6D16B6ED9076E
:1039800005D4AB899A0502D4A86DFFF783FCAB89F7
:103990005B063FF51DAF09981CE703AB00932A4671
:1039A000054B04A9304600F079F8E4E79C41000893
:1039B000A64100080000000067370008A241000887
:1039C0002DE9F047164699468A680B69DDF8208094
:1039D0009342B8BF1346336091F8432007460C4624
:1039E0000AB1013333602368990642BF336802335A
:1039F0003360256815F0060506D104F1190AE3685D
:103A000032689B1AAB4226DC94F84320131E2268CE
:103A100018BF012392062BD404F1430249463846CD
:103A2000C04701301ED02368226903F00603042B2F
:103A300002BFE5683368ED1AA3680CBF25EAE57597
:103A400000259342C4BF9B1AED1800261A34B542D4
:103A50001AD1002008E00123524649463846C047A3
:103A6000013003D14FF0FF30BDE8F0870135C6E7E4
:103A7000E1185A1C302081F84300224494F8451084
:103A800082F843100233C7E70123224649463846ED
:103A9000C0470130E6D00136D9E700002DE9FF47E5
:103AA0000F7E0C9D782F914680460C469A4601F178
:103AB000430207D8622F0AD8002F00F0D480582F75
:103AC00000F0C08004F1420584F842703AE0A7F1AA
:103AD0006303152BF6D801A151F823F0353B0008FC
:103AE000493B0008C53A0008C53A0008C53A000835
:103AF000C53A0008493B0008C53A0008C53A000825
:103B0000C53A0008C53A00084D3C0008753B00085E
:103B1000073C0008C53A0008C53A00086F3C000899
:103B2000C53A0008753B0008C53A0008C53A0008C8
:103B30000F3C00082B681A1D1B682A6004F142051F
:103B400084F8423001239FE020682B68070603F1C8
:103B50000401296001D51E6803E04606FBD5B3F9D0
:103B60000060002E03DA2D23764284F843305A4851
:103B70000A2312E02B682068191D2960050601D56B
:103B80001E6802E04106FBD51E8853486F2F0CBF0C
:103B900008230A23002184F843106568A560002DDE
:103BA000A2BF216821F0040121600EB9002D4BD085
:103BB0001546B6FBF3F103FB1167C75D05F8017D00
:103BC0003746BB420E46F4D9082B0BD12368DE07DB
:103BD00008D5236961689942DEBF302305F8013CAE
:103BE00005F1FF35521B2261CDF800A04B4603AA18
:103BF00021464046FFF7E4FE01304AD14FF0FF3046
:103C000004B0BDE8F087236843F020032360334805
:103C1000782784F84570236829681F0651F8046BDB
:103C200002D45F0648BFB6B2DF0748BF43F02003A7
:103C3000296048BF23601EB9236823F02003236056
:103C40001023A7E72448E4E71546BDE72B6826685C
:103C50006169181D286035061B6801D5196002E0EE
:103C60007006FBD51980002323611546BCE72B683D
:103C70001A1D2A601D68626800212846FCF7B8FA00
:103C800008B1401B606063682361002384F84330FF
:103C9000AAE723692A4649464046D0470130ADD0BD
:103CA00023689B0713D4E068039B9842B8BF18466B
:103CB000A6E70123324649464046D04701309DD011
:103CC0000135E36803995B1AAB42F2DCEBE70025B0
:103CD00004F11906F5E700BFAD410008BE41000838
:103CE0008A892DE9F041054610070C4658D44B68E7
:103CF000002B05DC0B6C002B02DC0020BDE8F08102
:103D0000E66A002EF9D0002312F480522F68216A4F
:103D10002B6032D0606DA3895A0705D56368C01A3D
:103D2000636B0BB1236CC01A00230246E66A216A5A
:103D30002846B047431CA38906D129681D292BD8E2
:103D4000294A0A41D60727D400226260D904226991
:103D5000226004D5421C01D12B6803B96065616BF8
:103D60002F600029C9D004F14403994202D02846AB
:103D7000FFF792FA00206063C0E701232846B047AE
:103D8000411CC8D12B68002BC5D01D2B01D0162B90
:103D900001D12F60B1E7A38943F04003A381ADE7D0
:103DA0000F69002FA9D093070E6808BF4B690F60F9
:103DB00018BF0023A6EB07088B60B8F1000F9CDD4D
:103DC000216AA66A43463A462846B047002806DCE0
:103DD000A38943F04003A3814FF0FF308EE70744EF
:103DE000A8EB0008E9E700BFFEFFBFDF38B50B69AD
:103DF00005460C4613B90025284638BD18B1036A9C
:103E00000BB9FFF721F9B4F90C30002BF3D0626E37
:103E1000D00704D4990502D4A06DFFF73AFA2846DA
:103E20002146FFF75DFF636EDA070546E4D4A389F8
:103E30009B05E1D4A06DFFF72DFADDE7F8B50E463E
:103E40001446054618B1036A0BB9FFF7FDF8A369DC
:103E5000A360A3891A0725D523691BB323682269A8
:103E6000981A6369F6B28342374604DC2146284635
:103E7000FFF7BCFFE0B9A368013BA36023685A1CAD
:103E800022601E706269431C9A4204D0A389DB073A
:103E900006D50A2E04D121462846FFF7A7FF38B9D8
:103EA0003846F8BD2146284600F006F80028D5D04F
:103EB0004FF0FF37F4E7000038B52A4B0546186885
:103EC0000C4618B1036A0BB9FFF7BEF8A389B4F921
:103ED0000C20180722D4D90607D409232B6042F0FE
:103EE0004003A3814FF0FF3034E0580712D5616BD7
:103EF00041B104F14403994202D02846FFF7CCF9BE
:103F000000236363A38923F02403A3810023636058
:103F100023692360A38943F00803A38123694BB974
:103F2000A38903F42073B3F5007F03D0214628460C
:103F300000F0A7F8A089B4F90C2010F001030AD012
:103F40000023A36063695B42A361236943B910F056
:103F50008000C4D138BD810758BF6369A360F4E70E
:103F60000020F7E764000020884210B501EB02044E
:103F700002D98442234607D8431EA14208D011F833
:103F8000012B03F8012FF8E7024401468A4200D1D1
:103F900010BD13F8014D02F8014DF7E738B5064D95
:103FA0000023044608462B60FCF78CFE431C02D11C
:103FB0002B6803B1236038BD540200200A449142AB
:103FC00000F1FF3300D1704710B511F8014B03F831
:103FD000014F9142F9D110BD2DE9F04180461446C0
:103FE0000E4621B9BDE8F0411146FFF7C1B92AB923
:103FF000FFF752F925462846BDE8F08100F0A0F809
:104000008442074602D8B4EB500F12D821464046EE
:10401000FFF7AEF905460028EDD0BC4222463146F6
:1040200028BF3A46FFF7CAFF31464046FFF734F94A
:10403000E1E73546DFE770B50C46B1F90E1000290F
:1040400096B015461E460DDAA38913F0800F4FF087
:1040500000010CBF4FF480634023002031602B60CF
:1040600016B070BD6A4600F049F80028ECDB0199F3
:1040700001F47041A1F50053594259414FF4806356
:10408000EBE78B8973B59D0706460C4607D504F10F
:104090004703236023610123636102B070BD01AB5C
:1040A0006A46FFF7C8FF009905463046FFF760F9FA
:1040B00048B9B4F90C309A05EFD423F0030343F068
:1040C0000203A381E3E7A389206043F08003A38177
:1040D000009B6361019B20615BB1B4F90E10304617
:1040E00000F01EF828B1A38923F0030343F0010375
:1040F000A381A3891D43A581CFE7000038B5074DF3
:1041000000230446084611462B60FCF7B2FD431C11
:1041100002D12B6803B1236038BD00BF54020020D8
:1041200038B5064D0023044608462B60FCF7B1FD68
:10413000431C02D12B6803B1236038BD5402002018
:1041400051F8043C181F002BBCBF0B58C018704717
:10415000F8B500BFF8BC08BC9E467047F8B500BF74
:08416000F8BC08BC9E46704744
:1041680025750D0A000000006F6E6520706572737A
:104178006F6E2064657465637465640000000000F8
:1041880000000000010203040607080900000000FF
:1041980001020304232D302B2000686C4C00656657
:1041A8006745464700303132333435363738394180
:1041B8004243444546003031323334353637383996
:0841C80061626364656600009A
:0841D000F0C0FF7F01000000B8
:0441D800C501000815
:0441DC00A101000835
:1041E0000024F400100000000100000000000000A6
:1041F000030000001801002000000000180100204A
:1042000080010020E8010020000000000000000004
:10421000000000000000000000000000000000009E
:10422000000000000000000000000000000000008E
:10423000000000000000000000000000000000007E
:0842400000000000180000203E
:0400000508000D558D
:00000001FF
